:020000040800F2
:10000000008001201D2D0008091600080B160008AD
:100010000D1600080F160008111600080000000059
:10002000000000000000000000000000131600089F
:100030001516000800000000171600081916000821
:100040006D2D00086D2D00086D2D00086D2D000828
:100050006D2D00086D2D00086D2D00086D2D000818
:100060006D2D00086D2D00086D2D00086D2D000808
:100070006D2D00086D2D00086D2D00086D2D0008F8
:100080006D2D00086D2D00086D2D00086D2D0008E8
:100090006D2D00086D2D00086D2D00081D1600083F
:1000A0006D2D00086D2D00086D2D00086D2D0008C8
:1000B0006D2D00086D2D00086D2D00086D2D0008B8
:1000C0006D2D00086D2D00086D2D00086D2D0008A8
:1000D0006D2D00086D2D00086D2D00086D2D000898
:1000E000251600086D2D00086D2D00086D2D0008E7
:1000F0006D2D00086D2D00086D2D00086D2D000878
:100100006D2D00086D2D00086D2D00086D2D000867
:100110006D2D00086D2D00086D2D00086D2D000857
:100120006D2D00086D2D00086D2D00086D2D000847
:100130006D2D00086D2D00086D2D00086D2D000837
:100140006D2D00086D2D00086D2D00086D2D000827
:100150006D2D00086D2D00086D2D00086D2D000817
:100160006D2D00086D2D00086D2D00086D2D000807
:100170006D2D00086D2D00086D2D00080000000099
:080180006D2D00086D2D000833
:1001900010B5054C237833B9044B13B10448AFF3C1
:1001A00000800123237010BDE0010020000000004A
:1001B0007C5C000808B5034B1BB103490348AFF34F
:1001C000008008BD00000000E40100207C5C000805
:1001D00001F0FF01102A2BDB10F0070F08D010F8F8
:1001E000013B013A8B422DD010F0070F42B3F6D1FC
:1001F000F0B441EA012141EA014122F007047FF015
:1002000000070023F0E80256083C85EA010586EA6B
:10021000010685FA47F5A3FA87F586FA47F6A5FAA7
:1002200087F68EB9EED1F0BC01F0FF0102F00702B3
:1002300032B110F8013B013A83EA010313B1F8D15E
:100240000020704701387047002D06BF354603383F
:10025000073815F0010F07D1013015F4807F02BF78
:10026000013015F4C03F0130F0BC0138704700BFC9
:10027000034613F8012B002AFBD1181A01387047E6
:1002800081F0004102E000BF83F0004330B54FEA47
:1002900041044FEA430594EA050F08BF90EA020FB4
:1002A0001FBF54EA000C55EA020C7FEA645C7FEA47
:1002B000655C00F0E2804FEA5454D4EB5555B8BF6A
:1002C0006D420CDD2C4480EA020281EA030382EADB
:1002D000000083EA010180EA020281EA0303362D6D
:1002E00088BF30BD11F0004F4FEA01314FF4801C40
:1002F0004CEA113102D0404261EB410113F0004F52
:100300004FEA03334CEA133302D0524263EB430308
:1003100094EA050F00F0A780A4F10104D5F1200EA6
:100320000DDB02FA0EFC22FA05F2801841F1000101
:1003300003FA0EF2801843FA05F359410EE0A5F1D5
:1003400020050EF1200E012A03FA0EFC28BF4CF006
:10035000020C43FA05F3C01851EBE37101F00045BC
:1003600007D54FF0000EDCF1000C7EEB00006EEBC9
:100370000101B1F5801F1BD3B1F5001F0CD3490853
:100380005FEA30004FEA3C0C04F101044FEA4452AA
:1003900012F5800F80F09A80BCF1004F08BF5FEA31
:1003A000500C50F1000041EB045141EA050130BD11
:1003B0005FEA4C0C404141EB0101013C28BFB1F523
:1003C000801FE9D291F0000F04BF01460020B1FA6E
:1003D00081F308BF2033A3F10B03B3F120020CDA41
:1003E0000C3208DD02F1140CC2F10C0201FA0CF01F
:1003F00021FA02F10CE002F11402D8BFC2F1200C84
:1004000001FA02F120FA0CFCDCBF41EA0C01904039
:10041000E41AA2BF01EB0451294330BD6FEA040482
:100420001F3C1CDA0C340EDC04F11404C4F120026D
:1004300020FA04F001FA02F340EA030021FA04F37F
:1004400045EA030130BDC4F10C04C4F1200220FAD6
:1004500002F001FA04F340EA0300294630BD21FA14
:1004600004F0294630BD94F0000F83F4801306BFDA
:1004700081F480110134013D4EE77FEA645C18BFCE
:100480007FEA655C29D094EA050F08BF90EA020F65
:1004900005D054EA000C04BF1946104630BD91EA5D
:1004A000030F1EBF0021002030BD5FEA545C05D160
:1004B0004000494128BF41F0004130BD14F580049F
:1004C0003CBF01F5801130BD01F0004545F0FE4113
:1004D00041F470014FF0000030BD7FEA645C1ABF48
:1004E000194610467FEA655C1CBF0B46024650EA7F
:1004F000013406BF52EA033591EA030F41F40021AB
:1005000030BD00BF90F0000F04BF0021704730B530
:100510004FF4806404F132044FF000054FF0000105
:1005200050E700BF90F0000F04BF0021704730B5C6
:100530004FF4806404F1320410F0004548BF40429B
:100540004FF000013EE700BF42004FEAE2014FEAF0
:1005500031014FEA02701FBF12F07F4393F07F4FCB
:1005600081F06051704732F07F4208BF704793F0CE
:100570007F4F04BF41F40021704730B54FF46074E1
:1005800001F0004521F000411CE700BF50EA0102E4
:1005900008BF704730B54FF000050AE050EA01028D
:1005A00008BF704730B511F0004502D5404261EBFD
:1005B00041014FF4806404F132045FEA915C3FF43E
:1005C000D8AE4FF003025FEADC0C18BF03325FEADB
:1005D000DC0C18BF033202EBDC02C2F1200300FA8C
:1005E00003FC20FA02F001FA03FE40EA0E0021FAB1
:1005F00002F11444BDE600BF70B54FF0FF0C4CF49F
:10060000E06C1CEA11541DBF1CEA135594EA0C0F50
:1006100095EA0C0F00F0DEF82C4481EA030621EA8B
:100620004C5123EA4C5350EA013518BF52EA0335C6
:1006300041F4801143F4801338D0A0FB02CE4FF078
:100640000005E1FB02E506F00042E0FB03E54FF0A8
:100650000006E1FB03569CF0000F18BF4EF0010EA0
:10066000A4F1FF04B6F5007F64F5407404D25FEA9C
:100670004E0E6D4146EB060642EAC62141EA55514F
:100680004FEAC52040EA5E504FEACE2EB4F1FD0C91
:1006900088BFBCF5E06F1ED8BEF1004F08BF5FEA0F
:1006A000500E50F1000041EB045170BD06F00046C1
:1006B00046EA010140EA020081EA0301B4EB5C046E
:1006C000C2BFD4EB0C0541EA045170BD41F4801166
:1006D0004FF0000E013C00F3AB8014F1360FDEBF8B
:1006E000002001F0004170BDC4F10004203C35DA67
:1006F0000C341BDC04F11404C4F1200500FA05F3EA
:1007000020FA04F001FA05F240EA020001F000428A
:1007100021F0004110EBD37021FA04F642EB060100
:100720005EEA430E08BF20EAD37070BDC4F10C042A
:10073000C4F1200500FA04F320FA05F001FA04F2EE
:1007400040EA020001F0004110EBD37041F10001DA
:100750005EEA430E08BF20EAD37070BDC4F12005E5
:1007600000FA05F24EEA020E20FA04F301FA05F24D
:1007700043EA020321FA04F001F0004121FA04F2F5
:1007800020EA020000EBD3705EEA430E08BF20EAC5
:10079000D37070BD94F0000F0FD101F000464000FF
:1007A00041EB010111F4801F08BF013CF7D041EA81
:1007B000060195F0000F18BF704703F00046520085
:1007C00043EB030313F4801F08BF013DF7D043EA56
:1007D0000603704794EA0C0F0CEA135518BF95EA0C
:1007E0000C0F0CD050EA410618BF52EA4306D1D193
:1007F00081EA030101F000414FF0000070BD50EAB2
:10080000410606BF1046194652EA430619D094EA3B
:100810000C0F02D150EA013613D195EA0C0F05D125
:1008200052EA03361CBF104619460AD181EA030179
:1008300001F0004141F0FE4141F470014FF0000031
:1008400070BD41F0FE4141F4780170BD70B54FF0CC
:10085000FF0C4CF4E06C1CEA11541DBF1CEA13554C
:1008600094EA0C0F95EA0C0F00F0A7F8A4EB05042E
:1008700081EA030E52EA03354FEA013100F0888025
:100880004FEA03334FF0805545EA131343EA1263EE
:100890004FEA022245EA111545EA10654FEA0026A3
:1008A0000EF000419D4208BF964244F1FD0404F55C
:1008B000407402D25B084FEA3202B61A65EB0305B8
:1008C0005B084FEA32024FF480104FF4002CB6EB75
:1008D000020E75EB030E22BFB61A754640EA0C00F5
:1008E0005B084FEA3202B6EB020E75EB030E22BF35
:1008F000B61A754640EA5C005B084FEA3202B6EB76
:10090000020E75EB030E22BFB61A754640EA9C0034
:100910005B084FEA3202B6EB020E75EB030E22BF04
:10092000B61A754640EADC0055EA060E18D04FEAC2
:10093000051545EA16754FEA06164FEAC30343EA62
:1009400052734FEAC2025FEA1C1CC0D111F4801F2F
:100950000BD141EA00014FF000004FF0004CB6E728
:1009600011F4801F04BF01430020B4F1FD0C88BFC7
:10097000BCF5E06F3FF6AFAEB5EB030C04BFB6EBD2
:10098000020C5FEA500C50F1000041EB045170BDC5
:100990000EF0004E4EEA113114EB5C04C2BFD4EBF2
:1009A0000C0541EA045170BD41F480114FF0000E76
:1009B000013C90E645EA060E8DE60CEA135594EAF2
:1009C0000C0F08BF95EA0C0F3FF43BAF94EA0C0FF5
:1009D0000AD150EA01347FF434AF95EA0C0F7FF46A
:1009E00025AF104619462CE795EA0C0F06D152EABE
:1009F00003353FF4FDAE1046194622E750EA4106A2
:100A000018BF52EA43067FF4C5AE50EA41047FF4B2
:100A10000DAF52EA43057FF4EBAE12E74FF0FF3C17
:100A200006E000BF4FF0010C02E000BF4FF0010CE8
:100A30004DF804CD4FEA410C7FEA6C5C4FEA430C61
:100A400018BF7FEA6C5C1BD001B050EA410C0CBFB0
:100A500052EA430C91EA030F02BF90EA020F002012
:100A6000704710F1000F91EA030F58BF994208BF79
:100A700090422CBFD8176FEAE37040F00100704736
:100A80004FEA410C7FEA6C5C02D150EA013C07D18D
:100A90004FEA430C7FEA6C5CD6D152EA033CD3D0D8
:100AA0005DF8040B704700BF8446104662468C46D2
:100AB0001946634600E000BF01B5FFF7B7FF002805
:100AC00048BF10F1000F01BD4DF808EDFFF7F4FF2E
:100AD0000CBF012000205DF808FB00BF4DF808EDB9
:100AE000FFF7EAFF34BF012000205DF808FB00BFDC
:100AF0004DF808EDFFF7E0FF94BF012000205DF8FE
:100B000008FB00BF4DF808EDFFF7CEFF94BF0120B2
:100B100000205DF808FB00BF4DF808EDFFF7C4FFAB
:100B200034BF012000205DF808FB00BF4FEA410CF4
:100B30007FEA6C5C02D150EA013C0AD14FEA430CD7
:100B40007FEA6C5C02D152EA033C02D14FF0000014
:100B500070474FF0010070474FEA410212F5001252
:100B600015D211D56FF47873B3EB625212D94FEAF4
:100B7000C12343F0004343EA505311F0004F23FADE
:100B800002F018BF404270474FF00000704750EA33
:100B9000013005D111F0004008BF6FF000407047F0
:100BA0004FF00000704700BF53B94AB9002908BF91
:100BB00000281CBF4FF0FF314FF0FF3000F074B938
:100BC000ADF1080C6DE904CE00F006F8DDF804E0A4
:100BD000DDE9022304B070472DE9F047089D044683
:100BE0008E46002B4DD18A42944669D9B2FA82F2E0
:100BF00052B101FA02F3C2F1200120FA01F10CFA1C
:100C000002FC41EA030E94404FEA1C48210CBEFB53
:100C1000F8F61FFA8CF708FB16E341EA034306FBDC
:100C200007F199420AD91CEB030306F1FF3080F06B
:100C30001F81994240F21C81023E63445B1AA4B2B8
:100C4000B3FBF8F008FB103344EA034400FB07F75A
:100C5000A7420AD91CEB040400F1FF3380F00A819B
:100C6000A74240F207816444023840EA0640E41B90
:100C700000261DB1D4400023C5E900433146BDE83C
:100C8000F0878B4209D9002D00F0EF800026C5E9DE
:100C9000000130463146BDE8F087B3FA83F6002EF6
:100CA0004AD18B4202D3824200F2F980841A61EB6E
:100CB000030301209E46002DE0D0C5E9004EDDE78C
:100CC00002B9FFDEB2FA82F2002A40F09280A1EB74
:100CD0000C014FEA1C471FFA8CFE0126200CB1FBC9
:100CE000F7F307FB131140EA01410EFB03F08842C2
:100CF00008D91CEB010103F1FF3802D2884200F24F
:100D0000CB804346091AA4B2B1FBF7F007FB1011E0
:100D100044EA01440EFB00FEA64508D91CEB04047E
:100D200000F1FF3102D2A64500F2BB800846A4EBD9
:100D30000E0440EA03409CE7C6F12007B34022FAC4
:100D400007FC4CEA030C20FA07F401FA06F31C43F3
:100D5000F9404FEA1C4900FA06F3B1FBF9F8200C00
:100D60001FFA8CFE09FB181140EA014108FB0EF046
:100D7000884202FA06F20BD91CEB010108F1FF3A96
:100D800080F08880884240F28580A8F102086144A2
:100D9000091AA4B2B1FBF9F009FB101144EA0141B0
:100DA00000FB0EFE8E4508D91CEB010100F1FF345B
:100DB0006CD28E456AD90238614440EA0840A0FBF3
:100DC0000294A1EB0E01A142C846A64656D353D0C9
:100DD0005DB1B3EB080261EB0E0101FA07F722FAED
:100DE00006F3F1401F43C5E9007100263146BDE816
:100DF000F087C2F12003D8400CFA02FC21FA03F379
:100E0000914001434FEA1C471FFA8CFEB3FBF7F0F9
:100E100007FB10360B0C43EA064300FB0EF69E421E
:100E200004FA02F408D91CEB030300F1FF382FD2B7
:100E30009E422DD9023863449B1B89B2B3FBF7F65F
:100E400007FB163341EA034106FB0EF38B4208D938
:100E50001CEB010106F1FF3816D28B4214D9023E79
:100E60006144C91A46EA004638E72E46284605E797
:100E70000646E3E61846F8E64B45A9D2B9EB020868
:100E800064EB0C0E0138A3E74646EAE7204694E7F8
:100E90004046D1E7D0467BE7023B614432E730462B
:100EA00009E76444023842E7704700BF00B597B0D5
:100EB0004422002105A802F07BF814220021684694
:100EC00002F076F84FF4007000F082FD08B172B6BF
:100ED000FEE710224FF480710120CDE908120A22AA
:100EE0000223CDE91102072205A8CDE90F33CDE990
:100EF00013230593159300F031FE08B172B6FEE797
:100F0000CDE902000F220323049004216846CDE9B5
:100F1000002301F0A9F808B172B6FEE717B05DF83A
:100F200004FB000000B58BB000F0B0FBFFF7BEFF84
:100F3000142200210DEB020002F03AF8564B5748FC
:100F4000DA6C42F00402DA64DA6C02F00402009215
:100F5000009ADA6C42F08002DA64DA6C02F0800205
:100F60000192019ADA6C42F00102DA64DA6C02F062
:100F700001020292029ADA6C42F00202DA64DA6C3E
:100F800002F002020392039ADA6C42F00802DA6479
:100F9000DB6C03F008030493002241F6FF71049B0D
:100FA00000F0F4FC002249F6F3614FF0904000F0AD
:100FB000EDFC3B4800224FF6E77100F0E7FC3948B2
:100FC00000220421002400F0E1FC4FF400524FF411
:100FD00004133248079405A9CDE90523012500F043
:100FE000F7FB41F6FF732D4805A9CDE90535CDE99D
:100FF000074400F0EDFB49F6F36305A94FF090407C
:10100000CDE90535CDE9074400F0E2FB4FF6E77383
:10101000234805A9CDE90535CDE9074400F0D8FB03
:101020004FF488134FF48071CDE905134FF09040D1
:1010300005A9079400F0CCFB04231A4805A9CDE9C3
:101040000535CDE9074400F0C3FB224621461720B1
:1010500000F06AFB172000F099FB22462146282069
:1010600000F062FB282000F091FB0F4D0F484FF479
:10107000E133C0E900530C23C0E90244C0E9053460
:10108000C0E907440461446201F019FE08B172B678
:10109000FEE700F0C9F8FEE7001002400008004833
:1010A00000040048000C004800440040FC010020FF
:1010B00072B6FEE738B5044600F594750834AC42C4
:1010C0000AD054F8080C34F8041C012200F05EFC2D
:1010D000642000F003FBF1E738BD70B5044600F171
:1010E000680605460835B5420AD055F8080C35F8AB
:1010F000041C012200F04AFC642000F0EFFAF1E742
:101100000834B4420AD054F8080C34F8041C002205
:1011100000F03CFC642000F0E1FAF1E770BD000053
:1011200010B58CB0044601912422002103A802913D
:1011300001F03EFF019B2268054902A802F0A4FCD1
:101140000A2382B202A9034801F02CFD0CB010BDA5
:10115000985C0008FC01002000F1080373B5044608
:1011600003600D46E1B10846FFF782F80F2805EB52
:101170000006019007D9002201A9204601F058FE7F
:10118000019B2060A36020683246294601F086FE5C
:10119000019B2268636000212046D15402B070BDDB
:1011A000014801F03AFE00BFA95C000810B5B0F597
:1011B000005F88B005D1194A13680133136008B085
:1011C00010BDB0F5807F26D1154C1649236801AAC1
:1011D000013302A82360FFF7BFFF216802A8FFF7D1
:1011E0009FFF02A801F046FE2368012B08D14FF4AF
:1011F00000614FF0904008B0BDE8104000F0CBBB5C
:10120000022B01D12021F4E7032BD8D10023236046
:101210004FF48051EDE700BFD1E700BF800200200E
:1012200084020020D35C000800B51548154C164E0A
:10123000164D89B0FFF73EFF2368012B0FD11448EC
:10124000FFF74BFF01AA294602A8FFF785FF02A876
:101250002168FFF765FF02A801F00CFEECE7022B06
:1012600001D10C48ECE7032B01D10B48E8E7042B34
:1012700001D13046E4E7DFDD01232360DCE700BF76
:101280000804002080020020A8030020D75C00088A
:1012900088020020E802002048030020A54BA64A4F
:1012A000A6492DE9F04F4FF0200B4FF010064FF0FC
:1012B00008074FF090404FF400644FF480654FF4FE
:1012C00000784FF002094FF0040E4FF0010CA3F824
:1012D00004B09E839F8480264FF480774FF4005B98
:1012E000A3F854B0A3F86480A3F86C701A609960F6
:1012F0009C8119619D82986119629962A3F82C9072
:101300001A639E869963A3F83CE01864A3F844909E
:101310009864A3F84CC01A659A65A3F85C401966F6
:1013200099661A67A3F874C09A67A3F87C7048F2AC
:101330000007BB46A3F884704FF4805A804FC3F86F
:101340008870A3F894A05F46A3F89CB0A3F8B4A05B
:101350004FF4804B4FF0400AA3F8A4B0A3F8BCA010
:10136000A3F8CC80A3F8D4A0A3F8E4804FF0200B1E
:10137000C3F88000A3F88CE0C3F89010C3F898205D
:10138000C3F8A020C3F8A820A3F8AC50C3F8B0203D
:10139000C3F8B810C3F8C020A3F8C490C3F8C8209D
:1013A000C3F8D000C3F8D800A3F8DC50C3F8E000BD
:1013B000C3F8E810A3F8EC60C3F8F020A3F8F4E059
:1013C000C3F8F810A3F8FCC0C3F80021A3F804A1E7
:1013D0004FF0100AA3F814B1A3F81CA1C3F8080138
:1013E000A3F80C61C3F81011C3F81811554BA3F8FA
:1013F00004B04FF0080BA3F824B04FF4005B1A6060
:10140000A3F81CA0A3F854B099609C8119619D8237
:10141000986119629962A3F82C901A639E86996369
:10142000A3F83CE01864A3F844909864A3F84CC077
:101430001A659A65A3F85C40434B4FF0200B4FF4BC
:10144000807A1A60A3F804B0BB469F873C4FA3F88C
:1014500024A0A3F834A01F644FF4805A4FF400571F
:10146000A3F81C8099609C8119619D829961196221
:10147000A3F84CA0A3F854709A62A3F82CC01A6386
:101480009863A3F844E099641A659A65A3F85C40F0
:101490002E4B5F46A3F804B0A3F81CA04FF4804B7A
:1014A0004FF0400AA3F80CB0A3F824A01A609A6089
:1014B0001A619D829A6119629A62A3F83480A3F836
:1014C0004C804FF40058A3F83CA0A3F82C901A636A
:1014D00098631864A3F8445098641A65A3F854807C
:1014E0009A65A3F85C401A4BA3F80CB0A3F834A09B
:1014F0004FF0200B4FF0100A1A609F809A601A611B
:101500009D8299619E831A62A3F824E09962A3F8F0
:101510002CC01A6398639E871964A3F844B0996439
:10152000A3F84CA01A65A3F854809A65A3F85C4010
:10153000BDE8F08F080400200004004800080048BF
:10154000000C004888020020E80200204803002028
:10155000A80300200A4B1A6E42F001021A661A6EA6
:1015600082B002F001020092009A9A6D42F080521D
:101570009A659B6D03F080530193019B02B0704705
:101580000010024010B5AAB004461422002103A89E
:1015900001F00EFD8822002108A801F009FD226853
:1015A000174B9A4229D1022308A8089300F01AFF8A
:1015B00008B1FFF77DFD134B9A6D42F400329A6536
:1015C0009A6D02F400320192019ADA6C42F0010243
:1015D000DA64DB6C03F001030293029B0C2202230A
:1015E0000021CDE903230323CDE905134FF09040FB
:1015F000072303A9079300F0EBF82AB010BD00BF42
:101600000044004000100240FEE7FEE7FEE7FEE770
:10161000FEE770477047704700F04EB84FF4807097
:1016200000F0C2B94FF4005000F0BEB9034AD2F83E
:10163000883043F47003C2F88830704700ED00E052
:1016400038B50F4B0546187808B9012038BD0D4A4A
:101650004FF47A73B3FBF0F31068B0FBF3F000F0D3
:10166000A3F804460028F0D10F2DEED802462946F3
:101670004FF0FF3000F058F8034B20461D60E5E7BF
:10168000040000200000002008000020094A136820
:1016900043F4807310B50320136000F033F800208A
:1016A000FFF7CEFF044618B9FFF754FF204610BDE0
:1016B0000124FBE700200240034A044B11681B7819
:1016C0000B441360704700BF280500200400002071
:1016D000014B1868704700BF2805002038B5044644
:1016E000FFF7F6FF631C1CBF054B1B78054618BFB0
:1016F000E418FFF7EDFF431BA342FAD338BD00BF48
:10170000040000200749CA6822F4E06203021204C0
:1017100003F4E063120C134343F0BF6343F400335C
:10172000CB60704700ED00E0164B30B5DC68C4F3C9
:101730000224C4F10705231D042D28BF0425062B10
:101740004FF0FF338CBF033C002403FA05F521EA78
:101750000501A34022EA0302A140002841EA020356
:10176000ACBF00F16040084A4FEA0313B8BF00F075
:101770000F00DBB2AABF00F56140135480F80033BC
:1017800030BD00BF00ED00E014ED00E0002808DBF4
:101790000123420900F01F0003FA00F0014B43F857
:1017A0002200704700E100E00138B0F1807F0BD2E9
:1017B0004FF0E023054A5861F02182F82310002001
:1017C000072298611A6170470120704700ED00E020
:1017D0002DE9F74FDFF8B091694C00230A6832FA1F
:1017E00003F502D103B0BDE8F08F4FF0010E0EFA01
:1017F00003FE1EEA020200F090804D6805F0030629
:101800004FEA43084FF0030C771E0CFA08FC012F37
:101810006FEA0C0C00F28380876807EA0C0ACF6835
:1018200007FA08F747EA0A078760476827EA0E0EB3
:10183000C5F300179F4047EA0E074760C76807EAED
:101840000C0E8F6807FA08F747EA0E07022EC760EA
:1018500071D0076806FA08F607EA0C07374315F453
:10186000403F076059D0D9F8606046F00106C9F8DA
:101870006060D9F8606023F0030707F1804706F045
:10188000010607F58037019603F0030E019EBE683E
:101890004FEA8E0E4FF00F0C0CFA0EFCB0F1904F89
:1018A00026EA0C0C5FD0374EB0425ED006F580665B
:1018B000B0425CD006F58066B0425AD006F580662C
:1018C000B04258D006F58066B04256D006F5806624
:1018D000B0420CBF0626072606FA0EF646EA0C06AC
:1018E000BE60A668D74315F4801F0CBF3E40164368
:1018F000A660E66815F4001F0CBF3E401643E66084
:10190000666815F4003F0CBF3E40164366602668CB
:10191000ED0354BF3E401643266001335EE7032EBD
:101920008CD1C76A27EA0E0EC5F3C0079F4047EA6D
:101930000E07C7628DE74FEAD30A00EB8A0A03F06D
:10194000070BDAF820704FEA8B0B4FF00F0E0EFAF0
:101950000BFE27EA0E0E0F6907FA0BF747EA0E0790
:10196000CAF8207075E70026B6E70126B4E702261C
:10197000B2E70326B0E70426AEE70526ACE700BFD2
:101980000004014000040048001002400AB18161D7
:10199000704781627047436901EA030221EA03014B
:1019A00041EA024181617047044A5169014208B528
:1019B00002D05061FFF7FAFB08BD00BF00040140F0
:1019C000024B186800F4C060704700BF0070004010
:1019D000174A1368B0F5007F03F4C0631DD1B3F557
:1019E000007F01D100207047136823F4C06343F4E3
:1019F000007313600F4B1B6832214B430E49B3FB3E
:101A0000F1F301335169490500D523B953695B05E9
:101A1000E8D503207047013BF4E7B3F5806F1FBFA3
:101A2000136823F4C06343F480631360DAE700BFF4
:101A3000007000400000002040420F0037B51E4DEE
:101A4000AB6DDA00044618D5FFF7BAFFB0F5007F9A
:101A500023D1802C29D9A02C8CBF02200120174A29
:101A6000136823F0070303431360136803F00703AD
:101A7000181A18BF012003B030BDAB6D43F080537E
:101A8000AB65AB6D03F080530193019BFFF798FFAB
:101A9000AB6D23F08053AB65D8E7802C07D808D016
:101AA000A4F1700358425841D9E70020D7E703203A
:101AB000D5E70220D3E700BF00100240002002401B
:101AC000224B9A68D96812F00C0205D00C2A15D165
:101AD00001F00301012918D119681D48090755BFF4
:101AE000D3F894101968C1F30321C1F3031150F81E
:101AF00021004AB30C2A09D000207047042A22D0C2
:101B0000082A144818BF002070470020DA6802F045
:101B10000302022A15D00F49032A08BF0846D968D4
:101B2000DA68C2F306224243D868C0F34160C1F3C9
:101B30000211013001314000B2FBF1F2B2FBF0F0D2
:101B400070470548EBE70448704700BF00100240AB
:101B5000F85C000800127A000024F4002DE9F74335
:101B6000054618B9012003B0BDE8F083924C036824
:101B7000A668E768D80606F00C0607F003073DD50F
:101B80001EB10C2E66D1012F64D12368990702D5AE
:101B9000AB69002BE6D02368286A1A0756BFD4F831
:101BA000943023681B0903F0F00398423BD9FFF7F8
:101BB00045FF0028D6D1236843F00803236023683B
:101BC0002A6A23F0F003134323606368EA6923F46D
:101BD0007F4343EA02236360FFF772FFA368774AFB
:101BE000C3F30313D35C03F01F03D840744B186096
:101BF000744B1868FFF724FD0028B4D12B68D9076F
:101C00005FD42B689A0700F19E802B68190700F1BA
:101C1000DB802B685A0700F10181AB6A002B40F092
:101C20006A8100209FE7236843F00803236023684C
:101C300023F0F003034323606368EA6923F47F43DE
:101C400043EA02236360002EC6D1FFF7F7FE0028A7
:101C5000C2D087E7AB691BB3236843F0010323605D
:101C6000FFF736FD804623689B0711D5236843F0B4
:101C70000803236023682A6A23F0F00313432360D8
:101C80006368EA6923F47F4343EA02236360B5E7AC
:101C9000FFF71EFDA0EB08000228E4D9032062E74D
:101CA000236823F001032360FFF712FD80462368B9
:101CB0009807A3D5FFF70CFDA0EB08000228F6D982
:101CC000ECE7082E03D00C2E08D1032F06D1236891
:101CD0009B0396D56B68002B93D143E76B68B3F5F4
:101CE000803F10D1236843F480332360FFF7F0FC7A
:101CF00080462368980384D4FFF7EAFCA0EB080031
:101D00006428F6D9CAE7B3F5A02F04D1236843F4B9
:101D100080232360E6E7226822F480322260226872
:101D200022F480222260002BE0D1FFF7D1FC804614
:101D3000236899037FF565AFFFF7CAFCA0EB0800A5
:101D40006428F5D9AAE7042E03D00C2E10D1022F57
:101D50000ED123685A0503D5EB68002B3FF402AF80
:101D600063682A6923F0F85343EA026363604CE72F
:101D7000EB687BB1236843F480732360FFF7A8FC12
:101D8000074623685B05EBD4FFF7A2FCC01B0228C3
:101D9000F7D983E7236823F480732360FFF798FC67
:101DA0000746236858057FF530AFFFF791FCC01B4D
:101DB0000228F6D972E700BF00100240DE5C00087E
:101DC00000000020080000206B699BB1D4F894301B
:101DD00043F00103C4F89430FFF77AFC0746D4F8C7
:101DE00094309B073FF515AFFFF772FCC01B02282C
:101DF000F5D953E7D4F8943023F00103C4F89430B4
:101E0000FFF766FC0746D4F8943098077FF501AFDA
:101E1000FFF75EFCC01B0228F5D93FE7A36DD90090
:101E200029D4A36D43F08053A365A36D03F08053C1
:101E30000193019B4FF00108894F3B68DA051DD5DE
:101E4000AB68012B2BD1D4F8903043F00103C4F8D8
:101E50009030FFF73DFC41F288390746D4F89030C6
:101E6000980742D5B8F1000F3FF4D7AEA36D23F029
:101E70008053A365D1E64FF00008DDE73B6843F4EB
:101E800080733B60FFF724FC81463B68DB05D7D4B9
:101E9000FFF71EFCA0EB09000228F6D9FEE6052B91
:101EA00006D1D4F8903043F00403C4F89030CAE768
:101EB000D4F8902022F00102C4F89020D4F89020A9
:101EC00022F00402C4F89020002BC2D1FFF700FCDE
:101ED00041F288390746D4F890309907C2D5FFF708
:101EE000F7FBC01B4845F6D9D8E6FFF7F1FBC01B4E
:101EF0004845B3D9D2E6022B40F08F80E368EA6A06
:101F000003F00301914224D1296B03F070020139DF
:101F1000B2EB011F1DD1696B03F4FE42B2EB012F3E
:101F200017D1AA6B073A03F4003118BF012291427E
:101F30000FD1EA6B520803F4C001013AB1EB425FE2
:101F400007D12A6C520803F0C063013AB3EB426F29
:101F50004AD00C2E3FF406AE23685A013FF502AE7C
:101F60002368DB003FF5FEAD236823F08073236018
:101F7000FFF7AEFB064623689F012FD4E268394B7A
:101F80001340EA6A13436A6B43EA02232A6B013A5D
:101F900043EA0213AA6B120943EA4243EA6B52086E
:101FA000013A43EA42532A6C5208013A43EA426337
:101FB000E360236843F080732360E36843F0807339
:101FC000E360FFF785FB0546236898013FF529AEDE
:101FD000FFF77EFB401B0228F6D95FE6FFF778FB90
:101FE000801B0228C7D959E6236899013FF519AE2D
:101FF000236843F080732360E36843F08073E360F9
:10200000FFF766FB054623689A013FF50AAEFFF726
:102010005FFB401B0228F6D940E60C2E3FF4A2AD30
:10202000236823F080732360236813F0205F02BFCE
:10203000E36823F00303E360E36823F0887323F489
:102040008033E360FFF744FB054623689B017FF57F
:10205000E8ADFFF73DFB401B0228F6D91EE600BFA6
:10206000007000408C809DF92DE9F0410D4604463A
:1020700010B90120BDE8F081404A136803F007035E
:102080008B422AD32368D90732D421688A075BD4CC
:102090003A4A136803F00703AB425DD811F0040F0E
:1020A000374D64D10B0706D5AB68226923F4605322
:1020B00043EAC203AB60FFF703FDAB68314AC3F3E9
:1020C0000313BDE8F041D35C03F01F03D8402E4B4F
:1020D00018602E4B1868FFF7B3BA136823F0070394
:1020E0000B431360136803F007038B42C1D1C9E7A8
:1020F0006268234E032A33681AD113F0007FB8D0E8
:10210000B36823F003031343B360FFF7E1FA41F22E
:1021100088380746B368626803F00C03B3EB820F9C
:10212000B3D0FFF7D5FAC01B4045F3D90320A1E790
:10213000022A02D113F4003FE1E712B913F0020FB3
:10214000DDE713F4806FDAE70D4AA068936823F0A7
:10215000F003034393609BE7136823F007032B43CB
:102160001360136803F00703AB4282D196E7AB68B4
:10217000E26823F4E0631343AB6093E7002002407E
:1021800000100240DE5C0008000000200800002073
:10219000054B064A9B68C3F30223D35C044A1068CC
:1021A00003F01F03D840704700100240EE5C0008A7
:1021B00000000020054B064A9B68C3F3C223D35C92
:1021C000044A106803F01F03D84070470010024013
:1021D000EE5C000800000020F8B5434C0368E2689C
:1021E000054690070E4629D0E26802F003029A42A3
:1021F00078D1002A76D0E3686A68C3F3021301330A
:1022000093426FD1236823F080632360FFF760FA65
:10221000074623681A0130D4AB681F02A6B3012E0B
:102220004DD12A6921695208531E21F4C00222F4BB
:10223000FE423A4342EA4352226130E0022B11D07F
:10224000032B13D0012B4DD1226812F0020F49D07D
:10225000E0686A6820F07300013A184340EA02100F
:10226000E060CFE7226812F4806FF0E72268910304
:10227000EED4226812F4802FE9E7FFF729FAC01B99
:102280000228C6D90320F8BD2169EB6821F41F316B
:1022900021F440711B09394341EA4341216123681C
:1022A00043F080632360FFF713FA064623681B019F
:1022B00012D52369AA69134323610020E3E76B6900
:1022C00022695B08591E22F0C06323F4FE433B439E
:1022D00043EA41632361E2E7FFF7FAF9801B022832
:1022E000E4D9CFE70120CEE700100240F8B53C4C1E
:1022F0000368E268054690070E4627D0E26802F0C0
:1023000003029A4269D1002A67D0E3686A68C3F37E
:1023100002130133934260D1236823F0805323607A
:10232000FFF7D6F9074623689A002ED4AB68180247
:1023300096B36369296923F0C063490823F4FE4317
:102340000139034343EA4163636130E0022B11D05A
:10235000032B13D0012B40D1226812F0020F3CD086
:10236000E0686A6820F07300013A184340EA0210FE
:10237000E060D1E7226812F4806FF0E722689103F1
:10238000EED4226812F4802FE9E7FFF7A1F9C01B11
:102390000228C8D90320F8BD6269EB6822F41F3215
:1023A00022F440721B09024342EA434262612368FD
:1023B00043F080532360FFF78BF9064623689B00A8
:1023C00005D563696A69134363610020E3E7FFF79A
:1023D0007FF9801B0228F1D9DCE70120DBE700BF91
:1023E000001002402DE9F347066816F40066044623
:1023F00009D0416EB1F5000F22D013D831B3B1F539
:10240000800F2AD001262368D80409D5A16EB1F126
:10241000007F2CD026D881B3B1F1807F70D0012607
:10242000354639E0B1F5400FECD13B4A616ED2F848
:10243000883023F440030B43C2F888300026E2E7DB
:10244000354AD36843F48033D360EEE70430FFF7B6
:10245000C3FE06460028D6D1E7E700212030FFF76B
:1024600045FFF6E7B1F1407FD9D1354609E02A4A68
:10247000D36843F48033D360F7E7201DFFF7ACFE49
:102480000546002D42D1244AA16ED2F8883023F0AF
:1024900040730B43C2F888302368990340F15E8192
:1024A0001D4FBB6DDA0033D4BB6D43F08053BB6569
:1024B000BB6D03F080530193019B4FF00108DFF8DF
:1024C0005C90D9F8003043F48073C9F80030FFF70E
:1024D000FFF88246D9F80030DB0521D53DBBD7F89F
:1024E000903013F4407340F00F81D7F89030D4F857
:1024F000842023F440731343C7F89030354616E028
:10250000002104F12000FFF7F1FEB9E72E46C3E7F2
:102510004FF00008D3E700BF0010024000700040F9
:10252000FFF7D6F8A0EB0A000228D3D90325B8F1AB
:10253000000F03D0BB6D23F08053BB652368DA071F
:1025400008D59D49A06BD1F8882022F003020243F0
:10255000C1F888209F0708D59749E06BD1F88820FB
:1025600022F00C020243C1F888205E0708D5924988
:10257000206CD1F8882022F030020243C1F8882074
:10258000180708D58C49606CD1F8882022F0C00269
:102590000243C1F88820D90608D58749A06CD1F834
:1025A000882022F440720243C1F888209A0608D598
:1025B0008149E06CD1F8882022F440620243C1F8DE
:1025C00088209F0508D57C49E06DD1F8882022F449
:1025D00040220243C1F888205E0508D57649206E66
:1025E000D1F8882022F440120243C1F8882058060E
:1025F00008D57149206DD1F8882022F44052024359
:10260000C1F88820190608D56B49606DD1F888207B
:1026100022F440420243C1F88820DA0508D5664911
:10262000A06DD1F8882022F440320243C1F88820FE
:102630009B0410D5604AE16ED2F8883023F04063E5
:102640000B43B1F1006FC2F8883040F08980D36845
:1026500043F48013D36023681F0310D5564A216FBB
:10266000D2F8883023F040630B43B1F1006FC2F819
:10267000883040F08180D36843F48013D3602368AE
:102680005E030FD54C4A616FD2F8883023F0406367
:102690000B43B1F1006FC2F8883079D1D36843F4AD
:1026A0008013D3602368580412D54349A26FD1F830
:1026B000883023F040531343B2F1805FC1F8883073
:1026C00071D10221201DFFF787FD002818BF0546A4
:1026D0002268110408D53849E06FD1F8883023F01A
:1026E00080430343C1F88830D30309D5324AD4F874
:1026F0008010D2F8883023F000430B43C2F88830B2
:10270000284602B0BDE8F087D4F8842093423FF415
:10271000ECAED7F89020D7F8903043F48033C7F868
:102720009030D7F8903022F4407123F48033D007F2
:10273000C7F89030C7F890107FF5D7AEFEF7C8FF06
:1027400041F288390546D7F8903099073FF5CDAE6C
:10275000FEF7BEFF401B4845F5D9E7E63546EDE6F6
:10276000B1F1806F7FF477AF0121201DFFF734FDB9
:10277000002818BF05466EE7B1F1806F7FF47FAF88
:102780000121201DFFF728FD002818BF054676E728
:10279000B1F1806F86D10121201DFFF71DFD0028BA
:1027A00018BF05467EE7B2F1005F91D1022104F126
:1027B0002000FFF79BFD88E70010024070B504463B
:1027C00003682169A2681D68C0690A4361690A43F8
:1027D0008F49024329400A431A605A68E16822F48B
:1027E00040520A435A608B4AA16993421CBF226A35
:1027F00011439A6822F430620A439A60864A9342EF
:1028000017D1864BD3F8883003F00303013B022B2A
:1028100000F2CF80824AD35CB0F5004F40F099803F
:10282000082B22D8DFE803F0D9C89321CE2121213B
:10283000DD007C4A934206D1784B7B4AD3F888303E
:1028400003F00C03E7E7794A934219D1734BD3F8AD
:10285000883003F03003202B00F0B78007D8002B1E
:1028600000F0B880102B00F0AA8001204EE0302B41
:10287000FBD1B0F5004F00F0B4804FF4004083E08E
:102880006B4A93420FD1654BD3F8883003F0C003F5
:10289000802B00F09A8004D8002B00F09B80402B06
:1028A000E1E7C02BE4E7634A934212D15B4BD3F8D4
:1028B000883003F44073B3F5007F00F0868005D8BC
:1028C000002B00F08780B3F5807FCCE7B3F5407F25
:1028D000CEE7504A9342C8D1504BD3F8883003F426
:1028E0004063B3F5006F15D006D85BB1B3F5806FC8
:1028F000BBD1FFF7E5F807E0B3F5406FB5D14FF472
:10290000004008E0FFF744FC28B900200023C4E998
:10291000193370BD4848626802EB42038342A4D871
:10292000B0EB023FA1D8510800258C464FF48076C9
:102930002946E0FB06C12B466046FEF735F93F4BC2
:10294000A0F540729A4290D82368D860DDE73A48F3
:1029500047E0082B89D801A252F823F0812900080A
:10296000A7290008D12900086B280008AD29000814
:102970006B2800086B2800086B2800087B280008DB
:10298000FFF706FC0028C0D0626800EB5203B3FBDF
:10299000F2F34FF6EF72A3F1100191423FF665AFEB
:1029A0002268D360B1E7FFF705FCEBE7FFF788F893
:1029B000E8E7B0F5004FF6D1FFF7FCFB0FE0B0F50C
:1029C000004FF3D1FFF77CF809E0B0F5004FBED01F
:1029D0001948D9E7B0F5004FD2D1FFF7D9FB00284D
:1029E00093D06268530803EB40004FF6EF73B0FBDF
:1029F000F2F0A0F110029A423FF637AF20F00F0339
:102A000022689BB2C0F342001843D0607DE700BF4C
:102A1000F369FFEF008000400038014000100240E1
:102A2000285D0008004400402B5D0008004800407D
:102A3000004C0040005000400024F400FFFC0F0058
:102A4000436ADA0710B506D50168846A4A6822F439
:102A5000003222434A609C0706D50168C46A4A686E
:102A600022F4803222434A60590706D50168046B7C
:102A70004A6822F4802222434A601A0706D5016878
:102A8000446B4A6822F4004222434A60DC0606D5C1
:102A90000168846B8A6822F4805222438A60990616
:102AA00006D50168C46B8A6822F4005222438A600A
:102AB0005A060FD50168046C4A6822F4801222433A
:102AC000B4F5801F4A6005D14A68446C22F4C00204
:102AD00022434A601B0606D50268816C536823F4C2
:102AE00000230B43536010BD2DE9F041DDF8188041
:102AF00004460E4615461F462268D36936EA03038C
:102B00000CBF01230023AB4201D0002025E0B8F127
:102B1000FF3FF2D0FEF7DCFDC01B4045206802D825
:102B2000B8F1000F1BD150E8003F23F4D07340E808
:102B30000032002AF7D100F1080353E8003F23F0E8
:102B4000010300F1080141E80032002AF3D12023FB
:102B5000A367E36784F874200320BDE8F08103686D
:102B60005A07C9D5C3691B05C6D54FF40063036274
:102B700050E8003F23F4D07340E80032002AF7D138
:102B800000F1080353E8003F23F0010300F10801BE
:102B900041E80032002AF3D12023A367E367C4F899
:102BA0008030D7E72DE9FF419846836F202B0446FC
:102BB0000E4617464ED100294AD0002A48D090F838
:102BC0007430012B46D0012380F874300025212376
:102BD000C0F880508367FEF77BFDA268A4F85070B0
:102BE000B2F5805F0346A4F8527003D122690AB996
:102BF00035461646002284F87420B4F85220CDF8E9
:102C0000008092B23AB940212046FFF76DFF50B9DB
:102C10002023A36708E00022802120460393FFF7CA
:102C200063FF039B18B1032004B0BDE8F081216865
:102C30005EB935F8022BC2F308020A85B4F85220B7
:102C4000013A92B2A4F85220D7E716F8012BF4E724
:102C50000120E9E70220E7E730B50446002585B00A
:102C6000C0F88050FEF734FD226812681107034651
:102C700015D422681268520709D56FF07E4200927F
:102C80004FF4800100222046FFF72EFFA0B9202339
:102C90000020A36784F87400E36720660DE06FF0FE
:102CA0007E42009203902A464FF400112046FFF71F
:102CB0001BFF039B0028DCD0032005B030BD10B5FE
:102CC000044640B3836F1BB980F87430FEF75AFC9A
:102CD00022682423A367136823F0010313602046AE
:102CE000FFF76CFD012816D0636A13B12046FFF789
:102CF000A7FE23685A6822F490425A609A6822F02C
:102D00002A029A601A6842F0010220461A60BDE861
:102D10001040FFF7A1BF012010BD0000DFF834D044
:102D2000FEF784FC0C480D490D4A002302E0D458FC
:102D3000C4500433C4188C42F9D30A4A0A4C002305
:102D400001E013600432A242FBD300F0D5F8FEF795
:102D5000E9F8FEE70080012000000020E0010020EB
:102D600088610008E001002044050020FEE7012002
:102D7000704708B500F0BAF8162303604FF0FF3033
:102D800008BD08B500F0B2F816230360FEE770B581
:102D90000D4614460E46731B9C4201DC204670BD56
:102DA000AFF3008006F8010BF5E770B50D46144649
:102DB0000E46731B9C4201DC204670BD16F8010BC9
:102DC000AFF30080F5E700000A4A116808B5034632
:102DD00009B9094911601068694603448B4206D954
:102DE00000F084F80C2303604FF0FF3008BD13603F
:102DF000FCE700BF2C050020480500204FF0FF3005
:102E000070474FF400534B6000207047012070471B
:102E10000020704708B500F061F808B500F05EF8D2
:102E200008B500F05BF80AB100F09AB870470000EE
:102E300008B50B68B3F1804F02D30D48FFF7F0FFE0
:102E400093420BD9B3EB420F4FEA420006D2B0F1E6
:102E5000804F2ABF6FF0404308600B600868013064
:102E600001D5FFF7D7FFBDE8084000F01EB800BF4E
:102E7000385D000850F8083B834202D0184600F045
:102E800012B87047012A10B404D10A785DF8044BD7
:102E9000027070475DF8044BFFF7C5BF08B5521AC2
:102EA000FFF7F0FF08BD00F053B8012838BF01203C
:102EB00010B50446204600F043F830B900F006F89B
:102EC00008B900F00BF88047F4E710BD024B186812
:102ED000BFF35B8F704700BF3005002008B50620A8
:102EE00000F0B6FD0120FFF74CFF0000014B186811
:102EF000704700BF0C00002070B50D4D0D4C641BD9
:102F0000A4100026A64209D10B4D0C4C02F0B6FECF
:102F1000641BA4100026A64205D170BD55F8043BE1
:102F200098470136EEE755F8043B98470136F2E73B
:102F30007861000878610008786100088061000805
:102F4000024B0146186800F087B800BF0C00002053
:102F5000024B0146186800F033B800BF0C00002097
:102F60000A44914200F1FF3300D1704710B511F8C7
:102F7000014B03F8014F9142F9D110BD884210B5C1
:102F800001EB020402D98442234607D8431EA14222
:102F900008D011F8012B03F8012FF8E7024401468D
:102FA0008A4200D110BD13F8014D02F8014DF7E738
:102FB00002440346934200D1704703F8011BF9E72E
:102FC00037B5002944D051F8043C0190002BA1F101
:102FD0000404B8BFE41801F0F5FB1E4A0198136819
:102FE00033B96360146003B0BDE8304001F0F0BB5A
:102FF000A34208D9256861198B4201BF19685B6833
:1030000049192160EDE71A465B680BB1A342FAD972
:1030100011685518A5420BD1246821445418A342C5
:103020001160E0D11C685B68536021441160DAE7ED
:1030300002D90C230360D6E7256861198B4204BFCF
:1030400019685B68636004BF491921605460CAE76E
:1030500003B030BD34050020F8B5CD1C25F00305C4
:1030600008350C2D38BF0C25002D064601DBA94282
:1030700003D90C2333600020F8BD01F0A3FB2149E4
:103080000A6814469CB9204F3B6823B92146304654
:1030900000F0A6FC38602946304600F0A1FC431C35
:1030A00023D10C233360304601F092FBE3E7236821
:1030B0005B1B17D40B2B03D923601C44256004E051
:1030C0006368A2420CBF0B605360304601F080FB86
:1030D00004F10B00231D20F00700C21ACCD01B1AEC
:1030E000A350C9E722466468CCE7C41C24F003045B
:1030F000A042E3D0211A304600F072FC0130DDD14D
:10310000CFE700BF34050020380500202DE9FF4738
:1031100055EC104B002D0E4619462B46BBBF05F152
:1031200000431D4600232D230B700D9BDDF830A0BE
:10313000914623F02008BCBF22461446B8F1460F42
:1031400005D0B8F1450F00D10136022100E003217E
:1031500003AB019302AB009345EC104B5346324650
:1031600000F03EFDB8F1470F074602D119F0010FFC
:1031700022D0B8F1460F07EB060910D13B78302B6F
:103180000AD10022002320462946FDF79DFC18B9EC
:10319000C6F10106CAF80060DAF80030994400224E
:1031A000002320462946FDF78FFC08B1CDF80C908E
:1031B0003022039B4B4507D3039B0E9ADB1B3846FB
:1031C000136004B0BDE8F087591C03911A70F0E752
:1031D000F7B503460029B8BF494203F8022BB4BF34
:1031E0002D222B22092942702ADD0DF10704A44665
:1031F0000A27A6460A4691FBF7F607FB1615303557
:10320000632A04F1FF340EF8015C3146F1DC303101
:10321000AEF1020504F8011C441C294661450AD39D
:103220000DF10902A2EB0E02654588BF002213448E
:10323000181A03B0F0BD11F8012B04F8012FEDE7C7
:10324000302330318370C170031DF1E72DE9F04F59
:103250002DED028B8DB00C46DDF8608016461F46C2
:10326000054601F0ABFAD0F800A05046FDF700F893
:1032700000230A9323680593D8F8003094F818B017
:10328000073323F0070303F10802C8F80020D3E94D
:103290000023C4E91223D4E9128929F000430793DB
:1032A000CDF8188008EE100A9F4BDDE906014FF0BB
:1032B000FF32FDF73BFC88BBDDE906019A4B4FF07E
:1032C000FF32FDF715FC48BB00220023404649466B
:1032D000FDF704FC10B12D2384F84330934B944840
:1032E000BBF1470F94BF9846804603232361059B9B
:1032F00023F0040222604FF00009009733460BAA26
:103300002146284600F0D8F9013040F090804FF077
:10331000FF300DB0BDEC028BBDE8F08F42464B464E
:1033200040464946FDF702FC40B14B46002BBCBF6E
:103330002D2384F843307F487F4BD1E763680BF03F
:10334000DF0206925A1C3FD106236360059B616829
:1033500043F48062002303930AABCDE901B309ABC8
:1033600049EC108B009322600DF123032846FFF7F0
:10337000CDFE069B0999472B804608D1C81C02DB6D
:103380006368994241DDABF1020B5FFA8BFBBBF145
:10339000650F20D801395A4604F150000991FFF712
:1033A00017FF0A9A1318012A8146236102DC22685A
:1033B000D20701D5013323619DF82330002B9CD027
:1033C0002D2384F8433098E7069A472ABED1002B74
:1033D000BCD10123B9E7BBF1660F18D1002963689E
:1033E0000BDD216113B92268D00702D501330B44EC
:1033F0002361A1654FF00009DEE713B92268D20707
:1034000001D50233F4E70123F2E74FF0670B0A9B83
:10341000994205DB23682161D807EAD54B1CE7E711
:103420000029D4BFC1F1020201221344E0E723685E
:103430005A0507D42369424631462846B847013029
:103440002CD164E7BBF1650F40F2E080D4E91201B2
:1034500000220023FDF738FB002834D0374A01232F
:1034600031462846B84701303FF451AFDDE9092322
:103470009A4202DB2368D80710D518EE103A52465C
:1034800031462846B84701303FF441AF4FF00008BD
:1034900004F11A090A9B013B434509DC23689B0799
:1034A00000F10581E0680B9B9842B8BF184630E7F1
:1034B00001234A4631462846B84701303FF427AF3A
:1034C00008F10108E6E7099B002B39DC1B4A0123C0
:1034D00031462846B84701303FF419AFDDE90923EA
:1034E000134302D12368D907D8D518EE103A5246B3
:1034F00031462846B84701303FF409AF4FF0000984
:1035000004F11A0A099B5B424B4501DC0A9B92E7D6
:103510000123524631462846B84701303FF4F7AE02
:1035200009F10109EEE700BFFFFFEF7F545D0008DE
:10353000585D0008605D00085C5D0008645D00087F
:103540000A9AA36D9A42A8BF1A46002A914637DC10
:103550004FF0000B29EAE97904F11A02A36D0593F3
:10356000A3EB09035B4533DCDDE909239A423BDB2E
:103570002368DA0738D40A9B059A09999A1AA3EBAB
:1035800001099145A8BF9146B9F1000F35DC4FF014
:10359000000829EAE97904F11A0ADDE909239B1AEE
:1035A000A3EB090343457FF779AF01235246314628
:1035B0002846B84701303FF4AAAE08F10108ECE70D
:1035C0001346314642462846B8470130C0D19EE6F0
:1035D0000123314628460592B84701303FF497AEA3
:1035E000059A0BF1010BB9E718EE103A5246314635
:1035F0002846B8470130BED189E6059A4B46424479
:1036000031462846B8470130C1D180E60A9A012ADE
:1036100001DCDB0738D50123424631462846B8474E
:1036200001303FF474AE18EE103A52463146284647
:10363000B84701303FF46BAED4E9120100220023F9
:10364000FDF742FAD8B90A9B08F10102013B314665
:103650002846B84701300ED159E60123524631467B
:103660002846B84701303FF452AE08F101080A9BE2
:10367000013B4345F1DC4B4604F15002DCE64FF0E0
:10368000000804F11A0AF2E701234246DFE70123AA
:103690004A4631462846B84701303FF438AE08F173
:1036A0000108E3680B995B1A4345F0DCFAE64FF03A
:1036B000000804F11909F4E72DE9F0471646994688
:1036C0008A680B69DDF820809342B8BF13463360E7
:1036D00091F8432007460C460AB101333360236852
:1036E000990642BF336802333360256815F006053A
:1036F00006D104F1190AE36832689B1AAB4226DC52
:1037000094F84320131E226818BF012392062BD47D
:1037100004F1430249463846C04701301ED02368B1
:10372000E568326803F00603042B08BFAD1AA368EE
:1037300022690CBF25EAE57500259342C4BF9B1A98
:10374000ED1800261A34B5421AD1002008E00123F2
:10375000524649463846C047013003D14FF0FF304A
:10376000BDE8F0870135C6E7E1185A1C302081F822
:103770004300224494F8451082F843100233C7E70F
:103780000123224649463846C0470130E6D001367B
:10379000D9E700002DE9FF470F7E0C9D782F914659
:1037A00080460C469A4601F1430207D8622F0AD898
:1037B000002F00F0D880582F00F0A38004F14205BC
:1037C00084F842703AE0A7F16303152BF6D801A103
:1037D00051F823F02D38000841380008BD370008A3
:1037E000BD370008BD370008BD3700084138000864
:1037F000BD370008BD370008BD370008BD370008D9
:103800004D390008713800082F390008BD3700080D
:10381000BD3700086F390008BD370008713800084F
:10382000BD370008BD370008373900082B681A1D5E
:103830001B682A6004F1420584F842300123A3E0AA
:1038400020682968060601F104030AD50E682B607A
:10385000002E03DA2D23764284F843305E480A2393
:1038600019E00E682B6010F0400F18BF36B2EFE77A
:103870002B682068191D2960010601D51E6802E029
:103880004606FBD51E8854486F2F0CBF08230A2319
:10389000002184F843106568A560002DA2BF21684F
:1038A00021F0040121600EB9002D4DD01546B6FB64
:1038B000F3F103FB1167C75D05F8017D3746BB4295
:1038C0000E46F4D9082B0BD12368DE0708D52369EF
:1038D00061689942DEBF302305F8013C05F1FF35F0
:1038E000521B2261CDF800A04B4603AA2146404658
:1038F000FFF7E2FE01304CD14FF0FF3004B0BDE8DD
:10390000F087354881F845702968236851F8046BC1
:1039100029601D0614D5DF0744BF43F02003236050
:103920001EB9236823F0200323601023B0E7236827
:1039300043F0200323607823284884F84530E3E7E8
:10394000590648BFB6B2E6E71546BBE72B682668BE
:103950006169181D286035061B6801D5196002E0F1
:103960007006FBD51980002323611546BAE72B6842
:103970001A1D2A601D68626800212846FCF728FC91
:1039800008B1401B606063682361002384F8433002
:10399000A8E723692A4649464046D0470130ABD0C4
:1039A00023689B0713D4E068039B9842B8BF18466E
:1039B000A4E70123324649464046D04701309BD018
:1039C0000135E36803995B1AAB42F2DCEBE70025B3
:1039D00004F11906F5E700BF665D0008775D000891
:1039E00038B5064D0023044608462B60FFF7ECF976
:1039F000431C02D12B6803B1236038BD3C05002075
:103A00001F2938B504460D4604D9162303604FF02C
:103A1000FF3038BD426C12B152F821304BB920460C
:103A200000F030F82A4601462046BDE8384000F054
:103A300017B8012B0AD0591C03D1162303600120AB
:103A4000E7E7002442F82540284698470020E0E7B1
:103A5000024B01461868FFF7D3BF00BF0C000020DF
:103A600038B5074D00230446084611462B60FFF782
:103A700080F9431C02D12B6803B1236038BD00BF1D
:103A80003C050020FFF773B90EB400B59CB01DAB28
:103A9000029006906FF0004109480791049109498E
:103AA00053F8042B05910068019302A901F084FAF0
:103AB000029B00221A701CB05DF804EB03B0704743
:103AC0000C0000200802FFFF2DE9F74F03690C6985
:103AD000A3420746C0F28180013C01F1140800F1C5
:103AE000140505EB8403019358F8243055F824207D
:103AF00001339A424FEA840B08EB8409B2FBF3F6D8
:103B000031D34FF0000E4046AC46F24650F8042B3D
:103B100093B206FB03E34FEA134E9BB2AAEB0303F7
:103B2000120CDCF800A006FB02E213FA8AF34FEA5B
:103B3000124E1FFA82FADCF80020CAEB124202EBA6
:103B400023429BB243EA024381454CF8043B4FEACF
:103B5000224ADBD255F80B302BB9019B043B9D4226
:103B60001A462ED33C61384601F0BAF8002824DB0F
:103B7000013628464FF0000C58F8042BD0F800E02E
:103B800093B2ACEB0303120C13FA8EF3C2EB1E429A
:103B900002EB23429BB243EA0243C14540F8043B97
:103BA0004FEA224CE8D255F8242005EB840322B9D1
:103BB000043B9D421A460AD33C61304603B0BDE83F
:103BC000F08F1268043B002ACCD1013CC7E7126891
:103BD000043B002AF0D1013CEBE70020EEE70000B7
:103BE0002DE9F04F2DED048B57EC106B93B0456A27
:103BF000DDF88080069110EE10AA044609920C931D
:103C0000BB4675B91020FFF79BF90246606220B9E8
:103C1000A74BEA21A74801F0CFFAC0E9015505609A
:103C2000C560636A196851B15A684A6001239340BC
:103C30008B60204600F012FE636A00221A603B1E71
:103C4000AABF002323F0004BC8F800309A4BBCBF3A
:103C50000122C8F8002033EA0B031BD10C9A42F270
:103C60000F731360CBF31303334300F09285219B52
:103C700063B9924B22E0924B01930833219A13606F
:103C8000019813B0BDEC048BBDE8F08F8B4B019312
:103C90000333F3E70022002350465946FCF714FF94
:103CA0004BEC19AB804658B10C9A01231360219B51
:103CB000002B00F06B8583481860431E0193DFE7FB
:103CC0004BEC10AB10AA11A9204601F0AFF8CBF3D2
:103CD0000A5508EE100A002D00F0848019EE903A83
:103CE000C3F3130343F07F57564647F44017A5F23A
:103CF000FF35CDF83880744B002230463946FCF74A
:103D0000C3FA65A3D3E90023FCF776FC64A3D3E9E7
:103D10000023FCF7BBFA064628460F46FCF702FCD8
:103D200061A3D3E90023FCF767FC02460B4630464B
:103D30003946FCF7ABFA06460F46FCF70DFF0022AA
:103D40000090002330463946FCF7C8FE50B1009879
:103D5000FCF7E8FB32463B46FCF7B6FE10B9009B89
:103D6000013B0093009B162B5AD8009A574B03EB4C
:103D7000C203D3E9002351EC190BFCF7AFFE002876
:103D800050D0009B013B009300230B93109B5D1BC5
:103D90006B1E059345BFC5F1010304930023002367
:103DA0004CBF05930493009B002B3DDB059B009AC1
:103DB0000A921344059300230793069B092B00F2F4
:103DC0008980052BC4BF043B0693069BA3F1020325
:103DD000CCBF00250125032B00F28780DFE803F02C
:103DE0002D3A3859DDE910531D4405F23243202B9A
:103DF000C1BFC3F1400305F212400BFA03F326FAE8
:103E000000F0DABFC3F1200306FA03F01843FCF711
:103E100079FB01230646A1F1F877013D0E936AE78D
:103E20000123B2E70B90B1E7049B009A9B1A04931D
:103E30005342079300230A93BFE700230893099B8B
:103E4000002B55DC0123CDE902331A4609920CE020
:103E50000123F3E70023099A0893009B134402937C
:103E60000133012B0393B8BF0123606A0022426033
:103E7000042202F114069E4241683DD9204600F01A
:103E8000ADFC019000283BD1114B02464FF4D57197
:103E9000C0E60123DFE700BF61436F63A787D23F1E
:103EA000B3C8608B288AC63FFB799F501344D33F29
:103EB000955D0008AC5D00080000F07F915D000892
:103EC000885D0008655D00080000F83FE05E0008BE
:103ED000295E000801250023069308954FF0FF3363
:103EE000CDE9023300221223B0E701230893F5E75E
:103EF000099BCDE90233B8E7013141605200B8E7D0
:103F0000636A019A1A60039B0E2B00F29D80002DBC
:103F100000F09A80009B002B32DDB74A03F00F03BC
:103F200002EBC303D3E90089009BD8054FEA2317AE
:103F300016D5B24B51EC190BD3E90823FCF786FCDC
:103F400007F00F0782468B460325AC4E57B9424611
:103F50004B4650465946FCF779FC82468B4628E092
:103F60000225F2E7F90708D540464946D6E900237D
:103F7000FCF742FB0135804689467F100836E5E7AD
:103F800000F09B80009B9D4F5E429B4B06F00F0212
:103F900003EBC203D3E9002351EC190BFCF72CFB14
:103FA000361182468B4600230225002E7AD1002B43
:103FB000D3D10B9B002B00F08280914B0022504606
:103FC0005946FCF78BFD002879D0039B002B76D057
:103FD000029B002B36DD009B504659465F1E002297
:103FE000884BFCF709FB029E82468B46013528462A
:103FF000FCF798FA52465B46FCF7FEFA824B002229
:10400000FCF744F9D046D9468246A1F1507B002EF8
:1040100058D17E4B002240464946FCF735F95246BE
:104020005B4680468946FCF777FD002840F0958284
:1040300052460BF1004340464946FCF74FFD00282D
:1040400040F089825BEC19AB119B002BC0F24881D8
:10405000009A0E2A00F34481674B03EBC203D3E9B5
:104060000089099B002B80F2D580039B002B00F375
:10407000D18040F06F82654B002240464946FCF7F4
:10408000BBFA52465B46FCF73DFD039E37460028CF
:1040900040F04582019D312305F8013B009B01332F
:1040A000009340E2F20705D5D7E90023FCF7A4FA14
:1040B000013501237610083777E7022579E7009F5D
:1040C000039E94E701994C4B31440D91089903EB01
:1040D000C60353E90223002943D04D490020FCF7D1
:1040E000B5FB52465B46FCF7CFF8019D82468B46F6
:1040F00049464046FCF730FD0646FCF713FA0246F7
:104100000B4640464946FCF7BFF8303605F8016BD0
:1041100052465B4680468946FCF7E0FC002863D1A6
:1041200042464B4636490020FCF7AEF852465B4605
:10413000FCF7D4FC002840F0B5800D9B9D4281D057
:10414000304B002250465946FCF756FA2D4B82461A
:104150008B46404649460022FCF74EFA8046894687
:10416000C6E750465946FCF747FA0D9B019D0F9351
:1041700082468B4649464046FCF7EEFC0646FCF775
:10418000D1F9303602460B4640464946FCF77CF8EA
:1041900005F8016B0D9B9D42804689464FF0000259
:1041A00024D11B4B50465946FCF770F802460B468B
:1041B00040464946FCF7B0FC002873D152465B46A6
:1041C00013490020FCF760F802460B46404649467A
:1041D000FCF784FC00283FF435AF0F9D6B1E0F9356
:1041E00015F8013C302BF8D0009749E0054BFCF75F
:1041F00003FA80468946BDE7E05E0008B85E000825
:104200000000F03F0000244000001C40000014406B
:104210000000E03F019D56465F4642464B46304611
:104220003946FCF713FBFCF797FC8246FCF77AF95A
:1042300042464B46FCF7E0F902460B46304639460B
:104240000AF13006FCF720F805F8016B019E039F88
:10425000AE1BB74202460B4635D1FCF717F8424673
:104260004B4606460F46FCF757FCD0B942464B4634
:1042700030463946FCF728FC10B11AF0010F10D176
:10428000204618EE101A00F0E9FA002300982B706F
:104290000C9B01301860219B002B3FF4F1AC1D609A
:1042A000EEE4009F2B461D4613F8012D392A06D156
:1042B000019A9A42F7D10199302201370A701A788F
:1042C00001321A7090E7A64B0022FCF795F9002204
:1042D000002306460F46FCF7F7FB00289DD0CFE7EA
:1042E000089A002A00F0D780069A012A00F3BA80C3
:1042F0000E9A002A00F0B28003F23343079E049D19
:10430000049A1A440492059A01211A4420460592FF
:1043100000F05CFB0746002D0CDD059B002B09DD42
:10432000AB42049AA8BF2B46D21A0492059AED1A02
:10433000D31A0593079B1BB3089B002B00F0AF809B
:10434000002E13DD39463246204600F0FFFB18EE02
:10435000102A01460746204600F04EFB18EE101AC0
:104360008046204600F07AFA08EE108A079B9A1BD6
:1043700006D018EE101A204600F0E8FB08EE100AEE
:104380000121204600F022FB0A9B002B064640F349
:1043900088801A460146204600F0D8FB069B012B78
:1043A000064640F381804FF00008336906EB830333
:1043B000186900F0BBFAC0F12000059B184410F00A
:1043C0001F0000F09280C0F12003042B40F38A808C
:1043D000C0F11C00049B03440493059B0344054463
:1043E0000593049B002B07DD18EE101A1A46204691
:1043F00000F006FC08EE100A059B002B05DD314697
:104400001A46204600F0FCFB06460B9B002B6ED0A4
:1044100018EE100A314600F063FC002867DA009BB2
:10442000013B18EE101A00930A220023204600F0E8
:1044300037FA089B08EE100A002B00F0B181002328
:1044400039460A22204600F02BFA029B002B074631
:1044500000F38E80069B022B51DC89E0109BC3F198
:1044600036034BE7039B5E1E079BB342BFBF079B10
:104470000796F21A0A9BB6BF9B189E1B0A93039BD2
:10448000B8BF0026002BB7BFDDE90323DDE9033504
:104490009D1A002334E7079E049D089F3BE7079A77
:1044A00067E7069B012B18DCBAF1000F15D1CBF39F
:1044B000130393B92BF000431B0D1B0583B1049B21
:1044C00001330493059B013305934FF001080A9BC8
:1044D000002B7FF46AAF01206FE74FF00008F6E78A
:1044E0009846F4E73FF47DAF18461C3072E7039B13
:1044F000002B37DC069B022B34DD039B0293029BCF
:104500006BB931460522204600F0CAF9014606463D
:1045100018EE100A00F0E4FB00283FF7BBAD099B42
:10452000019DDB4300934FF000083146204600F028
:1045300095F9002F3FF4A4AEB8F1000F05D0B845AF
:1045400003D04146204600F089F93946204600F064
:1045500085F995E600263746E1E70097374699E565
:1045600000002440089B002B00F0CA80039B0293AC
:10457000002D05DD39462A46204600F041FB07465E
:10458000B8F1000F5BD07968204600F027F90546A6
:1045900028B9874B024640F2EA21FFF73BBB3A6954
:1045A0000232920007F10C010C30FEF7D9FC012217
:1045B0002946204600F024FB019B03F10109DDE9B7
:1045C0000123134405930AF00103B84604930746F8
:1045D000314618EE100AFFF777FA4146029000F1D3
:1045E000300A18EE100A00F07BFB3A460390314681
:1045F000204600F091FBC26809F1FF3B054602BB73
:10460000014618EE100A00F06BFB024629462046D0
:10461000079200F023F9DDE9063243EA0201049B28
:104620000B434D460FD1BAF1390F2AD0039B002B13
:1046300002DD029B03F1310A8BF800A075E73846D2
:10464000BAE70122E2E7039B002B04DB06990B4348
:1046500004990B4322D1002AEEDD18EE101A012234
:10466000204600F0CDFA314608EE100A00F038FB83
:10467000002803DCE0D11AF0010FDDD0BAF1390FC8
:10468000D7D139238BF800302B461D46013B15F856
:10469000012C392A71D001321A7046E7002A07DD51
:1046A000BAF1390FEDD00AF101038BF800303CE785
:1046B000059B09F801AC994547D018EE101A002364
:1046C0000A22204600F0ECF8B84508EE100A4FF038
:1046D00000034FF00A024146204606D100F0E0F800
:1046E0008046074609F1010972E700F0D9F839461A
:1046F000804600230A22204600F0D2F80746F1E760
:10470000039B0293019D18EE100A3146FFF7DCF976
:1047100000F1300A019B05F801ABEA1A029B9342B3
:1047200009DD18EE101A00230A22204600F0B8F81E
:1047300008EE100AE7E7029B002BC8BF1D46019B4D
:10474000D8BF01251D444FF0000818EE101A0122B1
:10475000204600F055FA314608EE100A00F0C0FA83
:10476000002891DC02D11AF0010F8DD12B461D4695
:1047700013F8012D302AFAD0D7E6019A9A4284D153
:10478000009B0133009331231370CEE6094BFFF7F2
:1047900095BA219B002B7FF46EAA074BFFF78EBAC8
:1047A000029B002BAEDC069B022B3FF7A8AEA9E7CD
:1047B000295E0008645D0008885D000800487047B5
:1047C00060010020014800F028BD00BF4005002026
:1047D000014800F023BD00BF4005002070B5466AC7
:1047E00004460D4676B91020FEF7AAFB0246606229
:1047F00020B9184B1848662100F0DEFCC0E90166BC
:104800000660C660666AF36883B1636ADB6853F862
:104810002500B8B9012101FA05F6721D9200204663
:1048200000F060FB60B1C0E901560EE021220421D6
:10483000204600F057FB636AF060DB68002BE4D190
:10484000002070BD026843F825200023C0E903332F
:10485000F7E700BF955D00083A5E000870B5466A4C
:1048600005460C4676B91020FEF76AFB02466862E0
:1048700020B9094B09488A2100F09EFCC0E9016675
:104880000660C6603CB16B6A6268DB6853F8221050
:10489000216043F8224070BD955D00083A5E000833
:1048A0002DE9F0410D6907460C461E4601F1140C36
:1048B0000020DCF8003099B202FB01611E0C0B0CE9
:1048C00002FB063389B2013001EB034185424CF80B
:1048D000041B4FEA1346ECDC0EB3A368AB4219DCB1
:1048E000616838460131FFF779FF804628B90246F2
:1048F0000C4B0D48B52100F05FFC2269023204F137
:104900000C0192000C30FEF72BFB21463846FFF7D6
:10491000A5FF444604EB850301355E612561204611
:10492000BDE8F081295E00083A5E0008030C1B0414
:10493000D3B90004102310F07F4F04BF00020833E6
:1049400010F0704F04BF0001043310F0404F04BF5B
:1049500080000233002805DB10F0804F03F10103D3
:1049600008BF2023184670470023E4E7036813F0CC
:10497000070201460BD0DA0723D4980749BF5B082A
:104980009B0801200B605CBF0B600220704798B24F
:10499000A8B91B0C1020DAB20AB908301B0A1A0792
:1049A00004BF1B0904309A0704BF9B080230DA07D2
:1049B00003D45B0800F1010005D00B60704710467E
:1049C000E9E70020704720207047000010B50C4632
:1049D0000121FFF703FF024628B9054B05484FF4B4
:1049E000A07100F0E9FB01234461036110BD00BF29
:1049F000295E00083A5E00082DE9F04F91460A69E9
:104A0000D9F810309A42B8BF0B460C46BCBF4C4692
:104A100099462769D9F810A0A368616807EB0A06D0
:104A2000B34285B0B8BF0131FFF7D8FE30B90246B6
:104A3000444B454840F25D1100F0BEFB00F1140507
:104A400005EB86082B460022434521D304F11403CD
:104A500003EB870709F1140303EB8A0202923A1B66
:104A6000153A22F00302043204F115018F4238BFD7
:104A700004220192029A03939A420CD8002E03DD7D
:104A800058F8043D002B5AD0066105B0BDE8F08F00
:104A900043F8042BD8E7B3F800A0BAF1000F24D0F4
:104AA00004F1140EA9464FF0000C5EF8042BD9F85F
:104AB00000101FFA82FB89B20AFB0B114FEA124B5E
:104AC000D9F8002061444FEA124C0AFB0BC202EBFA
:104AD000114289B241EA0241774549F8041B4FEA85
:104AE000124CE2D8019A45F802C0039AB2F802903B
:104AF0000433B9F1000F20D0296804F1140CAE463C
:104B00004FF0000ABCF800B0BEF8022009FB0B22EF
:104B1000924489B241EA0A414EF8041B5CF8042B26
:104B2000BEF80010120C09FB021101EB1A41674597
:104B30004FEA114AE6D8019AA95004359AE7013E96
:104B40009CE700BF295E00083A5E00082DE9F843A3
:104B5000154612F0030206460F4607D0254C013ACF
:104B6000002354F82220FFF79BFE0746AD103DD0EE
:104B7000746A7CB91020FEF7E3F90246706228B926
:104B80001D4B1E484FF4D77100F016FBC0E90144DD
:104B90000460C460D6F82480D8F808404CB940F2CC
:104BA00071213046FFF712FF0023C8F808000446C1
:104BB00003604FF00009EB070AD53946224630461C
:104BC000FFF71AFF394680463046FFF747FE474653
:104BD0006D100BD0206838B9224621463046FFF7C9
:104BE0000BFF2060C0F800900446E4E73846BDE8BB
:104BF000F88300BFA85F0008955D00083A5E0008D2
:104C00002DE9F0470C464968236903EB6218A36855
:104C1000074691464FEA621A08F10106B3420BDBE0
:104C20003846FFF7DBFD054648B902462A4B2B48BC
:104C300040F2D91100F0C0FA01315B00EEE7002329
:104C400000F1140100F110021846534537DB2069CA
:104C50002AEAEA7A04F1140319F01F0901EB8A0128
:104C600003EB80002FD0C9F1200E8A464FF0000CD4
:104C70001A6802FA09F242EA0C024AF8042B53F8C5
:104C8000042B984222FA0EFCF2D8031B153B23F0AA
:104C90000303043304F11502904238BF042341F8A2
:104CA00003C0BCF1000F01D008F10206013E3846F6
:104CB0002E612146FFF7D2FD2846BDE8F08742F875
:104CC000040F0133C1E7043953F8042B41F8042FD2
:104CD0009842F9D8EAE700BF295E00083A5E00086A
:104CE00030B502690C69121B0ED100F114031431A6
:104CF00003EB840001EB840150F8045D51F8044D8E
:104D0000A54203D005D30122104630BD8342F3D320
:104D1000FAE74FF0FF32F7E72DE9F84F0C46064669
:104D2000114620469046FFF7DBFF051E10D12946AD
:104D30003046FFF753FD30B93A4B024640F232217C
:104D4000394800F039FA0123C0E90435BDE8F88F8D
:104D5000A4BF4346A0463046D8F80410A6BF1C4660
:104D600000250125FFF73AFD20B92E4B02464FF4EE
:104D70001071E5E7D8F810702669C56004F11409D0
:104D800008F1140500F1140E05EB870C09EB8606FB
:104D900008F11002F246002159F8043B52F804BF12
:104DA0001FFA83F811FA8BF11B0CA1EB0808C3EB77
:104DB0001B4303EB28431FFA88F819144E4548EAB1
:104DC00003434AF8043BE7D8331B153B23F00303A6
:104DD00004331534A64238BF04231D4473449E4651
:104DE0002E4666450ED30CF10302521B22F003023D
:104DF000033DAC4538BF00221A4452F8043D7BB154
:104E00000761A3E756F8048B11FA88F2141404EB37
:104E1000184492B242EA04424EF8042B2114E0E70F
:104E2000013FEAE7295E00083A5E00082DE9F743F2
:104E30008946012157EC106B9046FFF7CFFC0446E2
:104E400030B90246254B264840F20A3100F0B4F949
:104E5000C7F30A55C7F3130335BB002E019328D0BF
:104E600068460096FFF782FD009900B3019AC0F1F1
:104E7000200302FA03F30B43C24063610192019BDA
:104E8000A361002B14BF022201222261D5B1A5F239
:104E900033450544C9F80050C0F13500C8F800009A
:104EA000204603B0BDE8F08343F48013D5E7616189
:104EB000E5E701A8FFF75AFD019B6361012222612A
:104EC0002030E3E704EB8203A0F23240C9F800008F
:104ED0001869FFF72BFDC0EB4210DFE7295E0008E1
:104EE0003A5E000813B54A4311460192FEF7B4F842
:104EF000044618B1019A0021FEF75AF8204602B084
:104F000010BD2DE9F0478E689E4282460C469046C1
:104F10001F4638D88A8912F4906F32D02568096903
:104F2000A5EB0109656905EB450505EBD575013371
:104F30004B446D109D4238BF1D46530531D529465F
:104F4000FEF78AF8064650B90C23CAF80030A38948
:104F500043F04003A3814FF0FF30BDE8F0872169A3
:104F60004A46FDF7FDFFA38923F4906343F08003D5
:104F7000A381266165614E44A5EB09052660A56005
:104F80003E46BE4200D93E46206832464146FDF7C5
:104F9000F5FFA3689B1BA3602368334423600020B4
:104FA000DBE72A4600F04DF906460028E1D12169E9
:104FB0005046FEF705F8C7E72DE9F04F98468B8974
:104FC0001B069DB007460D4614460ED50B6963B906
:104FD0004021FEF741F82860286120B90C233B608E
:104FE0004FF0FF30D1E040236B6100230993202371
:104FF0008DF82930CDF80C803023DFF8A8818DF8AA
:105000002A304FF0010923469A4613F8012B0AB1C2
:10501000252AF9D1BAEB040B0BD05B462246294670
:105020003846FFF76EFF013000F0AA80099A5A4413
:1050300009929AF80030002B00F0A28000234FF074
:10504000FF32CDE905230AF1010A049307938DF895
:1050500053301A935446052214F8011B5148FBF7AC
:10506000B7F8049AD8B9D00644BF20238DF853303E
:10507000110744BF2B238DF853309AF800302A2BA8
:1050800015D0079A544600204FF00A0C214611F81B
:10509000013B303B092B4ED9B0B1079214E0A0EB95
:1050A000080309FA03F313430493A246D2E7039BD0
:1050B000191D1B680391002BBBBF5B4242F002022B
:1050C00007930793B8BF049223782E2B0CD16378F3
:1050D0002A2B35D1039B1A1D1B680392002BB8BFE6
:1050E0004FF0FF3302340593DFF8C8A02178032284
:1050F0005046FBF76DF840B14023A0EB0A0003FADD
:1051000000F0049B03430134049314F8011B264868
:105110008DF828100622FBF75BF8002838D0234BC7
:105120001BBB039B073323F0070308330393099B3F
:105130003344099367E70CFB02320C460120A5E7D4
:1051400000230134059319464FF00A0C204610F84D
:10515000012B303A092A03D9002BC5D00591C3E7AA
:105160000CFB012104460123F0E703AB00932A4620
:105170000F4B04A93846FEF769F8421C0646D6D103
:10518000AB895B063FF52CAF09981DB0BDE8F08FE9
:1051900003AB00932A46064B04A93846FEF7FAFAF9
:1051A000EBE700BFB45F0008BE5F00084D320008A7
:1051B000034F0008BA5F00081FB514461A46094B92
:1051C0001B680546D8684CB1074B0091CDE9013406
:1051D00006492B4600F00EF8FDF780FE044B1C46F6
:1051E000F3E700BF0C000020C55F0008D25F000895
:1051F000A85C00080EB403B5014603AB054853F89C
:10520000042B0068019300F06BF802B05DF804EB2A
:1052100003B070470C00002070477047704782B0A1
:1052200001B901A942B14BB113780B601278101E7D
:1052300018BF012002B070471046FBE76FF0010075
:10524000F8E7F8B5074614460E4621B9BDE8F84020
:105250001146FDF701BF22B9FDF7B2FE25462846EB
:10526000F8BD00F057FCA0420FD221463846FDF7AA
:10527000F3FE05460028F2D031462246FDF770FEC7
:1052800031463846FDF79CFEE9E73546E7E7936887
:10529000013B002B10B4936008DA9469A34201DB50
:1052A0000A2903D15DF8044B00F04AB91368581C71
:1052B0001060197008465DF8044B7047F8B5064653
:1052C0000F461446D518AC4201D1002007E014F86F
:1052D000011B3A463046FFF7DAFF431CF3D1F8BD15
:1052E0002DE9F04F0D469DB014469846064618B17C
:1052F00083690BB900F00CFB894B9D421BD175688B
:105300006B6ED90705D4AB899A0502D4A86DFFF757
:1053100084FFAB891B0701D52B69EBB929463046C1
:1053200000F06EF9C0B16B6EDC070ED54FF0FF30A8
:105330001DB0BDE8F08F7B4B9D4201D1B568DFE722
:10534000794B9D4208BFF568DAE7AB899805EDD443
:10535000A86DFFF763FFE9E70023099320238DF889
:105360002930CDF80C803023DFF8C0818DF82A3049
:105370004FF0010923469A4613F8012B0AB1252A5A
:10538000F9D1BAEB040B0BD05B46224629463046D6
:10539000FFF794FF013000F0AA80099A5A4409925D
:1053A0009AF80030002B00F0A28000234FF0FF326B
:1053B000CDE905230AF1010A049307938DF85330D0
:1053C0001A935446052214F8011B5848FAF700FFB7
:1053D000049AD8B9D10644BF20238DF8533013075F
:1053E00044BF2B238DF853309AF800302A2B15D068
:1053F000079A544600204FF00A0C214611F8013B51
:10540000303B092B4ED9B0B1079214E0A0EB080352
:1054100009FA03F313430493A246D2E7039B191D31
:105420001B680391002BBBBF5B4242F00202079353
:105430000793B8BF049223782E2B0CD163782A2BC4
:1054400035D1039B1A1D1B680392002BB8BF4FF088
:10545000FF3302340593DFF8E4A02178032250469D
:10546000FAF7B6FE40B14023A0EB0A0003FA00F0C1
:10547000049B03430134049314F8011B2C488DF85A
:1054800028100622FAF7A4FE00283FD0294B1BBBA8
:10549000039B073323F0070308330393099B3B4423
:1054A000099367E70CFB02320C460120A5E70023B5
:1054B0000134059319464FF00A0C204610F8012BD1
:1054C000303A092A03D9002BC5D00591C3E70CFB5C
:1054D000012104460123F0E703AB00932A46164B53
:1054E00004A93046FDF7B2FE0746781CD6D16B6E94
:1054F000D90705D4AB899A0502D4A86DFFF78EFEB3
:10550000AB895B063FF512AF099811E703AB009337
:105510002A46094B04A93046FEF73CF9E4E700BFF0
:105520002C6100084C6100080C610008B45F0008A1
:10553000BE5F00084D320008BD520008BA5F000887
:10554000F8B50E461446054618B183690BB900F04C
:10555000DFF9214B9C422BD16C68A369A360A3891E
:105560001A072FD523696BB323692068C01A6369B2
:10557000F6B28342374604DC2146284600F034F96F
:1055800030BBA368013BA36023685A1C22601E70D5
:1055900063690130834204D0A389DB0706D50A2E54
:1055A00004D12146284600F01FF988B93846F8BDD5
:1055B0000A4B9C4201D1AC68CFE7094B9C4208BF23
:1055C000EC68CAE72146284600F01AF80028CBD03C
:1055D0004FF0FF37EAE700BF2C6100084C6100087C
:1055E0000C61000849B1FF2A85BF8A2303600A7055
:1055F0004FF0FF3098BF0120704708467047000009
:10560000324B70B51D6806460C4625B1AB6913B91F
:10561000284600F07DF92E4B9C420FD16C68A3897F
:10562000B4F90C2019072CD4DD0611D409233360FA
:1056300042F04003A3814FF0FF303EE0254B9C42F7
:1056400001D1AC68EBE7244B9C4208BFEC68E6E76D
:10565000580712D5616B41B104F14403994202D05D
:105660003046FDF7ADFC00236363A38923F02403D8
:10567000A3810023636023692360A38943F00803A7
:10568000A38123694BB9A38903F42073B3F5007F89
:1056900003D02146304600F0FDF9A089B4F90C2072
:1056A00010F001030AD00023A36063695B42A36189
:1056B000236943B910F08000BAD170BD810758BF8B
:1056C0006369A360F4E70020F7E700BF0C00002047
:1056D0002C6100084C6100080C6100088A892DE9E2
:1056E000F041054610070C4658D44B68002B05DCEA
:1056F0000B6C002B02DC0020BDE8F081E66A002E76
:10570000F9D0002312F480522F682B6032D0606DE4
:10571000A3895A0705D56368C01A636B0BB1236C64
:10572000C01A00230246E66A216A2846B047431C95
:10573000A38906D129681D292CD82A4ACA40D60730
:1057400028D500226260D9042269226004D5421C57
:1057500001D12B6803B96065616B2F600029CAD045
:1057600004F14403994202D02846FDF729FC0020A9
:105770006063C1E7216A01232846B047411CC7D1B5
:105780002B68002BC4D01D2B01D0162B01D12F600C
:10579000B1E7A38943F04003A381ADE70F69002F70
:1057A000A9D093070E6808BF4B690F6018BF00238C
:1057B000A6EB07088B60B8F1000F9CDD216AA66A92
:1057C00043463A462846B047002806DCA38943F002
:1057D0004003A3814FF0FF308EE70744A8EB000899
:1057E000E9E700BF0100402038B50B6905460C46CB
:1057F00013B90025284638BD18B183690BB900F0EC
:1058000087F8144B9C421BD16C68B4F90C30002B08
:10581000EFD0626ED00704D4990502D4A06DFFF7D3
:10582000FCFC28462146FFF759FF636EDA07054660
:10583000E0D4A3899B05DDD4A06DFFF7EFFCD9E789
:10584000054B9C4201D1AC68DFE7044B9C4208BF8A
:10585000EC68DAE72C6100084C6100080C61000874
:10586000002310B50446C0E90033C0E90433836067
:1058700081814366C2818361194608225C30FDF74D
:1058800097FB054B6362054BA362054BE362054B37
:105890002462236310BD00BF255B0008475B00083E
:1058A0007F5B0008A35B0008014900F0AFB800BFB0
:1058B000E957000870B568224D1E55430E4605F1A4
:1058C0007401FDF7C9FB044640B10021C0E9001690
:1058D0000C30A06005F16802FDF76AFB204670BD40
:1058E0000148FFF79ABC00BF410500200148FFF7BF
:1058F00095BC00BF410500200148FFF78EBC00BFEA
:10590000420500200148FFF789BC00BF4205002086
:1059100010B50446FFF7F0FFA3691BB1BDE81040C6
:10592000FFF7F0BFC4E912332365134B134A1B681A
:10593000A262A34204BF0123A361204600F020F825
:105940006060204600F01CF8A060204600F018F8C7
:105950000022E06004216068FFF782FFA068012256
:105960000921FFF77DFFE06802221221FFF778FF8F
:105970000123A361D2E700BF505D0008A9580008C9
:10598000F8B50746FFF7ACFF1E4B1E68B36913B9A5
:105990003046FFF7BDFF4836D6E90134013B03D559
:1059A00033680BB33668F7E7B4F90C50D5B9164B2A
:1059B000E36004F158006566FFF72EFCFFF796FFE1
:1059C000C4E90155C4E904552560A56108222946AA
:1059D00004F15C00FDF7ECFAC4E90D55C4E9125579
:1059E0002046F8BD6834D9E704213846FFF762FF46
:1059F000044630600028D5D1FFF778FF0C233B60C8
:105A0000EEE700BF505D00080100FFFF2DE9F843FD
:105A10000646884600F148040027D4E90195B9F10B
:105A2000010905D52468002CF7D13846BDE8F88374
:105A3000AB89012B07D9B5F90E30013303D02946C4
:105A40003046C04707436835E9E770B50E46B1F9FF
:105A50000E10002996B014461D4608DAB6F90C302F
:105A600000222A601A0610D44FF480630EE06A46C2
:105A700000F0BEF80028F1DB019A02F47042A2F5B2
:105A800000535A425A412A60EEE740230020236027
:105A900016B070BD8B8973B59D0706460C4607D5B9
:105AA00004F14703236023610123636102B070BDE9
:105AB00001AB6A46FFF7C9FF009905463046FDF77E
:105AC000CBFA48B9B4F90C309A05EFD423F00303AC
:105AD00043F00203A381E3E70D4BB362A389206087
:105AE00043F08003A381009B6361019B20615BB154
:105AF000B4F90E10304600F08DF828B1A38923F0D8
:105B0000030343F00103A381A0890543A581CDE7E9
:105B1000A958000851F8043C181F002BBCBF0B58B3
:105B2000C018704710B50C46B1F90E1000F094F88B
:105B30000028ABBF636DA3891B1823F48053ACBF4F
:105B40006365A38110BD2DE9F0411F468B89DB05FC
:105B500005460C46164605D5B1F90E100223002263
:105B600000F068F8A389B4F90E1023F48053A381E0
:105B700032463B462846BDE8F04100F017B810B564
:105B80000C46B1F90E1000F055F8431CA38915BF5F
:105B9000606523F4805343F48053A38118BFA3812D
:105BA00010BDB1F90E1000F013B8000038B5074D64
:105BB00004460846114600222A601A46FDF7F5F809
:105BC000431C02D12B6803B1236038BD3C05002083
:105BD00038B5064D0023044608462B60FDF70EF944
:105BE000431C02D12B6803B1236038BD3C05002063
:105BF00038B5074D00230446084611462B60FDF7D3
:105C000000F9431C02D12B6803B1236038BD00BFEB
:105C10003C05002038B5064D0023044608462B609D
:105C2000FDF7F4F8431C02D12B6803B1236038BDA3
:105C30003C05002038B5074D0446084611460022B1
:105C40002A601A46FDF7E4F8431C02D12B6803B121
:105C5000236038BD3C05002038B5074D0446084692
:105C6000114600222A601A46FDF791F8431C02D122
:105C70002B6803B1236038BD3C050020F8B500BF98
:105C8000F8BC08BC9E467047F8B500BFF8BC08BC1D
:085C90009E4670470000000071
:105C98002054657374696E67202573202569200A6E
:105CA8000062617369635F737472696E673A3A5F21
:105CB8004D5F636F6E737472756374206E756C6C70
:105CC800206E6F742076616C6964004C4544005303
:105CD800454E534F52000000000000000000010232
:105CE800030406070809000000000102030400007D
:105CF800A0860100400D0300801A060000350C0044
:105D080040420F0080841E0000093D0000127A0006
:105D18000024F40000366E010048E801006CDC0243
:105D280004020800101010041010100210101008BF
:105D380062617369635F737472696E673A3A5F4D43
:105D48005F6372656174650010000020494E46006B
:105D5800696E66004E414E006E616E003000303153
:105D680032333435363738394142434445460030BA
:105D780031323334353637383961626364656600E9
:105D8800496E66696E697479004E614E00524545E8
:105D98004E54206D616C6C6F632073756363656529
:105DA800646564002F6D6E742F776F726B7370610A
:105DB80063652F776F726B73706163652F47434319
:105DC8002D31302D706970656C696E652F6A656E4E
:105DD8006B696E732D4743432D31302D70697065A3
:105DE8006C696E652D34385F32303230313132347F
:105DF8005F313630363138303634312F7372632F95
:105E08006E65776C69622F6E65776C69622F6C6955
:105E180062632F7374646C69622F64746F612E639C
:105E28000042616C6C6F63207375636365656465BC
:105E380064002F6D6E742F776F726B73706163657A
:105E48002F776F726B73706163652F4743432D31F2
:105E5800302D706970656C696E652F6A656E6B6947
:105E68006E732D4743432D31302D706970656C6911
:105E78006E652D34385F32303230313132345F3133
:105E88003630363138303634312F7372632F6E65C1
:105E9800776C69622F6E65776C69622F6C696263D3
:105EA8002F7374646C69622F6D707265632E630062
:105EB8000080E03779C34143176E05B5B5B89346FE
:105EC800F5F93FE9034F384D321D30F94877825ACA
:105ED8003CBF737FDD4F1575000000000000F03FE8
:105EE80000000000000024400000000000005940AD
:105EF8000000000000408F40000000000088C34000
:105F080000000000006AF8400000000080842E4174
:105F180000000000D01263410000000084D79741C0
:105F28000000000065CDCD41000000205FA00242C6
:105F3800000000E876483742000000A2941A6D423B
:105F4800000040E59C30A2420000901EC4BCD6422E
:105F580000003426F56B0C430080E03779C34143D9
:105F680000A0D8855734764300C84E676DC1AB434F
:105F7800003D9160E458E143408CB5781DAF15446D
:105F880050EFE2D6E41A4B4492D54D06CFF0804448
:105F9800F64AE1C7022DB544B49DD9794378EA445D
:105FA80005000000190000007D000000232D302BA3
:105FB8002000686C4C00656667454647002C2066E3
:105FC800756E6374696F6E3A2000617373657274DD
:105FD800696F6E2022257322206661696C65643AB8
:105FE8002066696C6520222573222C206C696E65F9
:105FF800202564257325730A004300504F534958E0
:10600800002E0000202020202020202020282828C2
:106018002828202020202020202020202020202068
:1060280020202020881010101010101010101010B0
:1060380010101010040404040404040404041010D0
:10604800101010101041414141414101010101016D
:106058000101010101010101010101010101011019
:106068001010101010424242424242020202020242
:1060780002020202020202020202020202020210EA
:1060880010101020000000000000000000000000B8
:1060980000000000000000000000000000000000F8
:1060A80000000000000000000000000000000000E8
:1060B80000000000000000000000000000000000D8
:1060C80000000000000000000000000000000000C8
:1060D80000000000000000000000000000000000B8
:1060E80000000000000000000000000000000000A8
:1060F8000000000000000000000000000000000098
:106108000000000000000000000000000000000087
:106118000000000000000000000000000000000077
:106128000000000000000000000000000000000067
:106138000000000000000000000000000000000057
:106148000000000000000000000000000000000047
:106158000000000000000000000000000000000037
:0861680000000000000000002F
:0861700068AAFF7F0100000096
:08617800B50100089D120008AA
:0861800091010008000000007D
:1061880000093D0001000000100000001000002080
:10619800000000002C6100084C6100080C61000838
:1061A80000000000000000000000000000000000E7
:1061B80000000000000000000000000000000000D7
:1061C80000000000000000000000000000000000C7
:1061D80000000000000000000000000000000000B7
:1061E80000000000000000000000000000000000A7
:1061F8004300000000000000000000000000000054
:106208000000000000000000000000000000000086
:106218004300000000000000000000000000000033
:106228000000000000000000000000000000000066
:106238004300000000000000000000000000000013
:106248000000000000000000000000000000000046
:1062580043000000000000000000000000000000F3
:106268000000000000000000000000000000000026
:1062780043000000000000000000000000000000D3
:106288000000000000000000000000000000000006
:1062980043000000000000000000000000000000B3
:1062A80000000000000000000000000000000000E6
:1062B8004300000000000000000000000000000093
:1062C80000000000000000000000000000000000C6
:1062D800E55500081F520008000000000B60000888
:1062E80009600008A85C0008A85C0008A85C000811
:1062F800A85C0008A85C0008A85C0008A85C000866
:10630800A85C0008A85C0008FFFFFFFFFFFFFFFF75
:10631800FFFFFFFFFFFF0000010041534349490011
:106328000000000000000000000000000000000065
:1063380000000000000000000000415343494900EC
:106348000000000000000000000000000000000045
:106358000000000000000000000000000000000035
:0400000508002D1DA5
:00000001FF
